:020000040800F2
:10000000884B00206502000821050008370400081D
:100010001D050008170300083D0800080000000047
:10002000000000000000000000000000CD010008FA
:100030001B03000800000000110200086510000802
:100040007F0200087F0200087F0200087F0200088C
:100050007F0200087F0200087F0200087F0200087C
:100060007F0200087F0200087F0200087F0200086C
:100070007F0200087F0200087F0200087F0200085C
:100080007F0200087F0200087F0200087F0200084C
:100090007F0200087F0200087F0200087F0200083C
:1000A0007F0200087F0200087F0200087F0200082C
:1000B0007F0200087F0200087F0200087F0200081C
:1000C0007F0200087F0200087F0200087F0200080C
:1000D0007F0200087F0200087F0200087F020008FC
:1000E0007F0200087F0200087F0200087F020008EC
:1000F0007F0200087F0200087F0200087F020008DC
:100100007F0200087F0200087F0200087F020008CB
:100110007F0200087F0200087F0200087F020008BB
:100120007F0200087F0200087F0200087F020008AB
:1001300000F002F800F03AF80AA090E8000C8244BF
:100140008344AAF10107DA4501D100F02FF8AFF29C
:10015000090EBAE80F0013F0010F18BFFB1A43F0A5
:1001600001031847A4110000C4110000103A24BF75
:1001700078C878C1FAD8520724BF30C830C144BF0C
:1001800004680C607047000000230024002500264E
:10019000103A28BF78C1FBD8520728BF30C148BFEA
:1001A0000B6070471FB51FBD10B510BD00F07DF886
:1001B0001146FFF7F7FF00F051FB00F09BF803B486
:1001C000FFF7F2FF03BC00F09FF80000224B196814
:1001D0000868B0E8F00F80F30988BFF36F8F4FF025
:1001E000000080F311884EF00D0E704700000000F3
:1001F00006480068006880F3088862B661B6BFF3FD
:100200004F8FBFF36F8F00DF00BF00BF08ED00E02E
:10021000EFF30980BFF36F8F0F4B1A6820E9F00FDF
:10022000106008B54FF0BF0080F31188BFF34F8F07
:10023000BFF36F8F00F0CCFE4FF0000080F3118809
:10024000BDE8084019680868B0E8F00F80F3098835
:10025000BFF36F8F704700BF08000020EFF30580E9
:10026000704700000948804709480047FEE7FEE75D
:10027000FEE7FEE7FEE7FEE7FEE7FEE7FEE7FEE756
:1002800004480549054A064B70470000DD07000891
:100290003101000888450020884B00208847002055
:1002A00088470020704770477047754600F028F86F
:1002B000AE4605006946534620F00700854618B053
:1002C00020B5FFF7DDFFBDE820404FF000064FF0FE
:1002D00000074FF000084FF0000B21F00701AC467B
:1002E000ACE8C009ACE8C009ACE8C009ACE8C0099A
:1002F0008D4670470446AFF300802046FFF75FFF4E
:10030000004870472845002001491820ABBEFEE791
:1003100026000200704700BFFEE770472DE9F0415C
:10032000024600250026002000230024002791F823
:1003300003C00CF00F0591F803C00CF0100CBCF1D9
:10034000000F03D091F802C04CEA050591F800C0F7
:10035000BCF1000F31D0146800202BE04FF0010CED
:100360000CFA00F3B1F800C00CEA03069E4220D15B
:1003700083004FF00F0C0CFA03F7BC4305FA03FCA3
:100380004CEA040491F803C0BCF1280F06D14FF0E9
:10039000010C0CFA00FCC2F814C00AE091F803C08A
:1003A000BCF1480F05D14FF0010C0CFA00FCC2F86B
:1003B00010C0401C0828D1D31460B1F800C0BCF1B3
:1003C000FF0F34DD546800202EE000F1080C4FF0E0
:1003D000010808FA0CF3B1F800C00CEA03069E42CB
:1003E00021D183004FF00F0C0CFA03F7BC4305FA40
:1003F00003FC4CEA040491F803C0BCF1280F05D1BA
:1004000000F1080C08FA0CF8C2F8148091F803C047
:10041000BCF1480F07D100F1080C4FF0010808FAB1
:100420000CF8C2F81080401C0828CED35460BDE8F8
:10043000F0810161704700BFFEE7000028E0154829
:10044000006808B9012000E0002012490860124845
:10045000D0F8840108B9012000E000200D49091DF1
:1004600008600D48D0F8900108B9012000E0002094
:100470000849103108600948D0F8800108B9012006
:1004800000E00020064908604FF4487000F0E6FCE8
:10049000D5E7000080012142000021420080214276
:1004A0008081214210B50446FF221146104600F01B
:1004B00039F80248006800F0EBFC10BD0400002091
:1004C00008B501210C2000F005F91320ADF800005B
:1004D00010208DF8030003208DF8020069460D48B6
:1004E000FFF71CFF01210B48FFF7A3FF022109487A
:1004F000FFF79FFF10210748FFF79BFF0120ADF892
:10050000000069460448FFF709FF01210248FFF790
:1005100090FF08BD00080140000C014000BFFEE74D
:10052000704700002DE9F04105460E4617460024AD
:10053000002066490860642000F082F900BF0FE0E7
:1005400000206249091F0860642000F079F9012049
:100550005F49C1F8A001642000F072F9601CC4B2C8
:10056000202CEDDB00244DE000205849091F0860D5
:10057000642000F065F9082C3AD2DFE804F00405A5
:100580000C131B222A3100BF01205049086064204F
:1005900000F056F92CE0F8094C490860642000F09E
:1005A0004FF925E0C7F3801048490860642000F047
:1005B00047F91DE0F00945490860642000F040F962
:1005C00016E0C6F3801041490860642000F038F955
:1005D0000EE0E8093D490860642000F031F907E0C9
:1005E000C5F3801039490860642000F029F900BF84
:1005F00000BF01203549091F0860642000F020F980
:10060000601CC4B2082CAFDB00241BE000202F4983
:10061000091F0860642000F013F9C4F1070047FACD
:1006200000F000F001002A49C1F8A401642000F0A4
:1006300007F901202549091F0860642000F000F92E
:10064000601CC4B2082CE1DB00241BE000201F4921
:10065000091F0860642000F0F3F8C4F1070046FAAF
:1006600000F000F001001A49C1F8A401642000F074
:10067000E7F801201549091F0860642000F0E0F840
:10068000601CC4B2082CE1DB00241BE000200F49F1
:10069000091F0860642000F0D3F8C4F1070045FA90
:1006A00000F000F001000A49C1F8A401642000F044
:1006B000C7F801200549091F0860642000F0C0F850
:1006C000601CC4B2082CE1DBBDE8F081A4812142AA
:1006D0000080214229B1064A92690243044B9A6183
:1006E00004E0034A92698243014B9A61704700001B
:1006F0000010024010B500F001F810BD0CB500204C
:10070000019000903348006840F48030314908601F
:1007100000BF3048006800F4003000900198401C91
:100720000190009818B90198B0F5A06FF1D129484F
:10073000006800F4003010B10120009001E00020BA
:1007400000900098012843D12348006840F0100031
:10075000214908600846006820F003000860084648
:10076000006840F0020008601A4840681949486073
:100770000846406848600846406840F48060486029
:100780000846406820F47C1048600846406840F401
:10079000E81048600846006840F08070086000BFBC
:1007A0000C48006800F000700028F9D00948406843
:1007B00020F00300074948600846406840F0020006
:1007C000486000BF0348406800F00C000828F9D1D9
:1007D0000CBD0000001002400020024010B513487C
:1007E000006840F00100114908600846406810495F
:1007F00008400E494860084600680E4908400B4909
:1008000008600846006820F48020086008464068B8
:1008100020F4FE0048604FF41F008860FFF76AFF75
:100820004FF000600449086010BD00000010024055
:100830000000FFF8FFFFF6FE08ED00E000BFFEE756
:10084000014607E0322201E0531EDAB2002AFBDC47
:100850004B1ED9B20029F5DC704700001CB5FFF72C
:100860002FFE0748022100238022CDE9001005A1B8
:10087000074800F011FC00F071FB00201CBD0000D7
:10088000000000205374617274205461736B000087
:10089000950800081CB5044600F094FA00200321D6
:1008A00003468022CDE900100AA10C4800F0F4FBB9
:1008B0000B48042100238022CDE9001009A10A4839
:1008C00000F0EAFB0948006800F0E2FA00F08CFA58
:1008D0001CBD00004C454430000000003D040008F1
:1008E0000400002052474200A50400080000002038
:1008F0002DE9F04105460E461C4807681C48006873
:10090000001D00F013FA50B91948006890F82C1037
:100910000120884017490968814316480160681C16
:1009200038B936B112480168091D134800F03DFA84
:100930001AE07C190E4800684460BC4207D20C489B
:100940000168091D0D48006800F015FA0CE0084820
:100950000168091D0A48006800F00DFA094800689E
:10096000844201D207480460BDE8F0811C000020E9
:1009700008000020200000201401002010000020AA
:100980000C0000203800002010B5044600F01AFAD0
:1009900023480068401C224908602248006840B98A
:1009A000204804600846006801280DD100F0F6F8E0
:1009B0000AE01D48006838B91A480068C06AE16A50
:1009C000884201D81748046018480068401C17493D
:1009D000086094F82C1001208840154909680843E4
:1009E00013490860E16A01EB8101124A02EB8100C0
:1009F000211D00F0DAF900F0F7F90B48006868B142
:100A000008480068C06AE16A884207D24FF0805007
:100A100009490860BFF34F8FBFF36F8F10BD00000F
:100A200018000020080000202400002034000020CE
:100A3000200000206000002004ED00E070B523E0FD
:100A400000F0BEFA1348006808B9012000E0002059
:100A5000054600F0E5FBBDB900F0B4F90D48C068EB
:100A6000C468201D00F062F90B480068401E0A4966
:100A700008600A480068401E0849086000F0B4F9A0
:100A8000204600F00DF800BF044800680028D7D1C8
:100A900070BD00000001002018000020140000209C
:100AA00010B50446206B00F0AFF9204600F0ACF919
:100AB00010BD00000A4A22F007000A4A1060002216
:100AC000084B5A6044F2F832074B5A6000221A6011
:100AD000014644F2F8324A601A460A607047000044
:100AE00030010020480000205000002000BFFFF728
:100AF000A5FF064800680128F9D94FF08050044945
:100B00000860BFF34F8FBFF36F8FF0E760000020E6
:100B100004ED00E02DE9FF5F80460F469146DDE9D8
:100B20000E6A109CA9F10100216B01EB800B2BF0E8
:100B3000070B002507E0795D04F134004155785D2D
:100B400000B902E06D1C102DF5D300BF0021432039
:100B50000155052E00D30426E66266640020A064D9
:100B6000201D00F005F904F1180000F001F92461DE
:100B7000C6F10500A06164620020E06484F85000C2
:100B800041465846039A00F0BFF82060BAF1000FC2
:100B900001D0CAF80040BDE8FF9F000010B5002456
:100BA00007E004EB84010F4A02EB810000F0D3F868
:100BB000641C052CF5D30C4800F0CDF80B4800F070
:100BC000CAF80B4800F0C7F80A4800F0C4F80A4811
:100BD00000F0C1F804480949086004480849086061
:100BE00010BD000060000020C4000020D8000020DC
:100BF000EC00002000010020140100200C00002067
:100C0000100000200A490968096809B9012100E0BB
:100C1000002121B14FF0FF31064A116006E004497E
:100C20000968C968C868034A4168116070470000D4
:100C30000C0000203800002000BFBF2080F3118886
:100C4000BFF34F8FBFF36F8F00BF00BFFEE7000001
:100C50002DE9F04104464FF0000800F0B1F92648B4
:100C6000006820B9FFF726FF01202349086044B13E
:100C7000083404F0070020B104F00700C0F10800B8
:100C80000444002C32D044F2F83084422ED21B4F60
:100C90003846056801E02F462D686868A04202D2F8
:100CA00028680028F7D1164885421FD0386800F11F
:100CB0000808286838606868001B102810D92E19A9
:100CC0006868001B70606C6071680C4800E0006828
:100CD000026852688A42FAD302683260066000BF36
:100CE000084968680968081A0649086000F098FA17
:100CF0004046BDE8F08100005C0000204800002074
:100D00005000002058000020001F4FF08073036047
:100D1000001F21F001030360001F034B0360143820
:100D20000260203870470000390C000801460A694B
:100D3000D1E901309860D1E90103586050688842D8
:100D400001D188685060002008611068401E106062
:100D500010687047704700F1080141604FF0FF31A3
:100D6000816000F10801C1600161002101607047EC
:100D700000210161704710B502460B685C1C0CB97C
:100D8000106907E002F1080000E040684468246848
:100D90009C42FAD944684C604C68A160886041600C
:100DA0000A611468641C146010BD42684A6093684C
:100DB0008B60936859609160086103685B1C0360F5
:100DC0007047000000BFBF2080F31188BFF34F8F32
:100DD000BFF36F8F00BF03480068401C01490860E3
:100DE000704700004400002006480068401E054986
:100DF00008600846006820B9002080F3118800BF11
:100E000000BF70474400002070B506463546B6B1B5
:100E1000083D2C4600F0D4F86168094800E00068FD
:100E2000026852688A42FAD3026822600460054967
:100E30006068096808440349086000F0F1F970BD72
:100E4000480000205800002003484FF0E02148618E
:100E500007200861704700003F19010070B5044683
:100E6000002544B100F0ACF800212046FFF740FD1A
:100E700000F0D6F905463DB94FF0805003490860AF
:100E8000BFF34F8FBFF36F8F70BD000004ED00E024
:100E900070B50546FFF796FF15B92748006800E0D2
:100EA00028460446201DFFF741FF78B9E06A00EBB1
:100EB0008000224951F8200040B994F82C100120FC
:100EC00088401F49096881431D480160A06A18B124
:100ED00004F11800FFF72AFF1A480068401C19495E
:100EE000086015480068844209D1211D1648FFF7A3
:100EF0005CFF16480068401C1449086009E014486B
:100F00000068401E124908602046FFF7C9FDFFF740
:100F100079FEFFF769FF0F48006858B1064800687E
:100F2000844207D14FF080500B490860BFF34F8FC8
:100F3000BFF36F8F70BD000008000020600000202C
:100F400020000020340000200001002014000020B8
:100F5000180000202400002004ED00E01CB511481A
:100F600000210B468022CDE900100FA1104800F0AF
:100F700093F80446012C14D100BFBF2080F31188E0
:100F8000BFF34F8FBFF36F8F00BF4FF0FF300949A2
:100F9000086001200849086000200849086000F046
:100FA00047F81CBD3C00002049444C4500000000AF
:100FB000ED0A000838000020240000201C0000205A
:100FC00002480068401C014908607047400000204A
:100FD0001248006818B10120114908601DE0002086
:100FE0000F4908600F480068B0FA80F0C0F11F0197
:100FF00001EB81020C4B03EB8200426852684260B5
:1010000000F108024368934202D14268526842608C
:101010004268D268054B1A6000BF7047400000204C
:101020002C0000202000002060000020080000208C
:1010300010B50A48006840F47F0008490860084677
:10104000006840F07F400860FFF7FEFE0020044982
:101050000860FFF7CDF8002010BD000020ED00E093
:101060004400002010B500BFBF2080F31188BFF3FB
:101070004F8FBFF36F8F00BF00F03EF818B14FF0F5
:1010800080500449086000BF002080F3118800BF31
:1010900010BD000004ED00E02DE9FF4F85B0804653
:1010A00089461746DDE912ABB800FFF7D1FD0646C9
:1010B00056B15420FFF7CCFD04460CB1266304E082
:1010C0003046FFF7A1FE00E000247CB10020CDE90E
:1010D00000ABCDE902403A4649464046089BFFF73F
:1010E00019FD2046FFF750FC012501E04FF0FF35C8
:1010F000284609B0BDE8F08F2DE9F04100273D48B2
:101100000068002868D13C480068451C3A480560E2
:101110008DB93A48D0F800803948006837490860EE
:101120003748C0F8008037480068401C35490860DF
:10113000FFF768FD00BF3448006885423BD300BF1D
:101140002E480068006808B9012000E0002020B1A6
:101150004FF0FF302C4908602CE028480068C06838
:10116000C4686668B54202D22748066022E0201DA6
:10117000FFF7DCFDA06A18B104F11800FFF7D6FDF7
:1011800094F82C10012088402049096808431F4921
:101190000860E16A01EB81011D4A02EB8100211D1B
:1011A000FFF703FE1B49E06A0968C96A8842C7D392
:1011B0000127C5E700BF17480068C06A00EB800040
:1011C000134951F82000012800D90127124800686E
:1011D00008B9FFF7BFFD06E00F480068401C0E4944
:1011E0000860FFF7B7FD0D48006800B101273846D9
:1011F000BDE8F081400000201C0000200C00002011
:1012000010000020300000203800002020000020C6
:101210006000002008000020280000202C00002092
:1012200070B500240026FFF7CDFD2E480068401E53
:101230002C4908600846006800284FD12A480068F9
:1012400000284BD024E02948C068C46804F1180085
:10125000FFF76CFD201DFFF769FD94F82C100120AD
:10126000884023490968084321490860E16A01EB85
:101270008101204A02EB8100211DFFF796FD1E49E6
:10128000E06A0968C96A884202D301201B490860E4
:101290001648006808B9012000E000200028D2D0DC
:1012A0000CB1FFF7AFFC1648056865B100BFFFF74A
:1012B00023FF10B10120114908606D1E002DF6D1E9
:1012C00000200F4908600D48006838B1012630073A
:1012D0000C490860BFF34F8FBFF36F8FFFF784FD9A
:1012E000304670BD4000002018000020EC000020B7
:1012F0002000002060000020080000202C000020BA
:101300002800002004ED00E0281300080000002061
:10131000600000006C0100088813000860000020D5
:10132000284B0000880100080000000000000000B9
:1013300000000000000000000000000000000000AD
:10134000000000000000000000000000000000009D
:10135000000000000000000000000000000000008D
:10136000000000000000000000000000AAAAAAAAD5
:10137000000000000000000000000000000000006D
:08138000F8430000000000002A
:0400000508000131BD
:00000001FF
