:020000040800F2
:10000000704C00202502000889060008A1050008A0
:100010008506000881040008EB0D000800000000C0
:10002000000000000000000000000000370200088F
:1000300085040008000000003B020008C90A00080F
:100040003F0200083F0200083F0200083F0200088C
:100050003F0200083F0200083F0200083F0200087C
:100060003F0200083F0200083F0200083F0200086C
:100070003F0200083F0200083F0200083F0200085C
:100080003F0200083F0200083F0200083F0200084C
:100090003F0200083F0200083F0200083F0200083C
:1000A0003F0200083F0200083F0200083F0200082C
:1000B0003F0200083F0200083F0200083F0200081C
:1000C0003F0200083F0200083F0200083F0200080C
:1000D0003F0200082D0B00083F0200083F02000805
:1000E0003F0200083F0200083F02000800F002F84B
:1000F00000F03CF80AA090E8000C82448344AAF186
:100100000107DA4501D100F031F8AFF2090EBAE883
:100110000F0013F0010F18BFFB1A43F0010318473B
:100120006418000084180000103A24BF78C878C111
:10013000FAD8520724BF30C830C144BF04680C60ED
:10014000704700000023002400250026103A28BF35
:1001500078C1FBD8520728BF30C148BF0B60704739
:10016000002070471FB51FBD10B510BD00F056F937
:100170001146FFF7F7FF00F05FFE00F074F903B4DB
:10018000FFF7F2FF03BC00F039FE0000224B1968B4
:100190000868B0E8F00F80F30988BFF36F8F4FF065
:1001A000000080F311884EF00D0E70470000000033
:1001B00006480068006880F3088862B661B6BFF33D
:1001C0004F8FBFF36F8F00DF00BF00BF08ED00E06F
:1001D000EFF30980BFF36F8F0F4B1A6820E9F00F20
:1001E000106008B54FF0BF0080F31188BFF34F8F48
:1001F000BFF36F8F01F03AFA4FF0000080F31188DF
:10020000BDE8084019680868B0E8F00F80F3098875
:10021000BFF36F8F704700BF1C000020EFF3058015
:10022000704700000948804709480047FEE7FEE79D
:10023000FEE7FEE7FEE7FEE7FEE7FEE7FEE7FEE796
:1002400004480549054A064B70470000CD0A0008DE
:10025000ED00000870460020704C0020704800201F
:1002600070480020704700000FB4044910B503AA7D
:10027000029800F0BDF810BC5DF814FB7800002077
:100280002DE9F05F894604464FF0000ADFF824B1FB
:10029000FB44C0F820A02046E168884700287DD0B4
:1002A000252806D0D4E901219047206A401C20620D
:1002B000F1E700255F462046E1688847202806468A
:1002C00007DB312E05D2B81910F8200C08B1054310
:1002D000F1E7A80701D525F00405C4F81CA0002704
:1002E000C4F818A02A2E09D0304600F080FD38B39B
:1002F00004EB8708303EC8F8186019E059F8041B71
:10030000204604EB87029161E1688847012F064689
:1003100018D1E069002820DA25F020051DE0D8F882
:10032000180000EB800006EB40003038C8F81800D9
:100330002046E1688847064600F059FD0028EED1C6
:10034000012F0AD02E2E08D12046E16888477F1C55
:100350000646022F45F02005C4DBA069002803DA19
:10036000404245F00105A061E80701D025F01005E5
:10037000A6B1A6F14100192802D8203645F400653F
:100380004A463146204625604D46FFF7E9FE60B1FA
:10039000012807D0ED1D25F0070000E007E000F17F
:1003A000080978E705F1040975E730467AE7206A1D
:1003B000BDE8F09FDC16000070477047704770473B
:1003C00001694A1C02610878704700B58FB0CDE919
:1003D00001310021059105497944CDE90310114609
:1003E0006846FFF74DFF0FB000BD0000E5FFFFFFBF
:1003F000074B70B50D467B44FFF7E7FF04462846E0
:1004000000F008F810B14FF0FF3070BD204670BD0D
:10041000230A0000007B00F080007047754600F062
:100420002BF8AE4605006946534620F00700854686
:1004300018B020B5FFF704FFBDE820404FF00006DC
:100440004FF000074FF000084FF0000B21F00701BC
:10045000AC46ACE8C009ACE8C009ACE8C009ACE8FF
:10046000C0098D46704710B50446AFF300802046A2
:10047000BDE81040FFF783BE004870470C460020DF
:1004800000BFFEE770472DE9F04102460025002637
:10049000002000230024002791F803C00CF00F0572
:1004A00091F803C00CF0100CBCF1000F03D091F8D0
:1004B00002C04CEA050591F800C0BCF1000F31D034
:1004C000146800202BE04FF0010C0CFA00F3B1F897
:1004D00000C00CEA03069E4220D183004FF00F0CAF
:1004E0000CFA03F7BC4305FA03FC4CEA040491F848
:1004F00003C0BCF1280F06D14FF0010C0CFA00FC30
:10050000C2F814C00AE091F803C0BCF1480F05D14D
:100510004FF0010C0CFA00FCC2F810C0401C082877
:10052000D1D31460B1F800C0BCF1FF0F34DD5468C2
:1005300000202EE000F1080C4FF0010808FA0CF33F
:10054000B1F800C00CEA03069E4221D183004FF0AF
:100550000F0C0CFA03F7BC4305FA03FC4CEA040445
:1005600091F803C0BCF1280F05D100F1080C08FA7E
:100570000CF8C2F8148091F803C0BCF1480F07D101
:1005800000F1080C4FF0010808FA0CF8C2F81080CE
:10059000401C0828CED35460BDE8F081016170474B
:1005A00000BFFEE728E01548006808B9012000E018
:1005B0000020124908601248D0F8840108B90120CF
:1005C00000E000200D49091D08600D48D0F8900199
:1005D00008B9012000E000200849103108600948EE
:1005E000D0F8800108B9012000E000200649086029
:1005F0004FF4487000F080FFD5E7000080012142F1
:1006000000002142008021428081214210B5044631
:10061000FF221146104600F071F80248006800F011
:1006200085FF10BD0400002008B501210C2000F05A
:100630004DF91320ADF8000010208DF803000320C1
:100640008DF8020069460D48FFF71DFF01210B4898
:10065000FFF7A4FF02210948FFF7A0FF1021074878
:10066000FFF79CFF0120ADF8000069460448FFF742
:100670000AFF01210248FFF791FF08BD0008014071
:10068000000C014000BFFEE77047000070B500217C
:1006900000230F22C47804B3154C246804F4E064EA
:1006A000C4F5E064210AC1F10403CA40447804FAA5
:1006B00003F184781440214309010E4C0678A155BA
:1006C000047804F01F050124AC4005786D11AD00DD
:1006D00005F1E025C5F8004109E0047804F01F05A4
:1006E0000124AC40044D0678761145F8264070BDD3
:1006F0000CED00E000E400E080E100E02DE9F041D5
:1007000005460E461746002400206649086064200E
:1007100000F076FB00BF0FE000206249091F08606F
:10072000642000F06DFB01205F49C1F8A001642046
:1007300000F066FB601CC4B2202CEDDB00244DE011
:1007400000205849091F0860642000F059FB082C5C
:100750003AD2DFE804F004050C131B222A3100BF53
:10076000012050490860642000F04AFB2CE0F809A1
:100770004C490860642000F043FB25E0C7F380107B
:1007800048490860642000F03BFB1DE0F009454942
:100790000860642000F034FB16E0C6F38010414985
:1007A0000860642000F02CFB0EE0E8093D49086079
:1007B000642000F025FB07E0C5F38010394908608C
:1007C000642000F01DFB00BF00BF01203549091F58
:1007D0000860642000F014FB601CC4B2082CAFDB7E
:1007E00000241BE000202F49091F0860642000F04E
:1007F00007FBC4F1070047FA00F000F001002A49A6
:10080000C1F8A401642000F0FBFA01202549091F6A
:100810000860642000F0F4FA601CC4B2082CE1DB2C
:1008200000241BE000201F49091F0860642000F01D
:10083000E7FAC4F1070046FA00F000F001001A4997
:10084000C1F8A401642000F0DBFA01201549091F5A
:100850000860642000F0D4FA601CC4B2082CE1DB0C
:1008600000241BE000200F49091F0860642000F0ED
:10087000C7FAC4F1070045FA00F000F001000A4988
:10088000C1F8A401642000F0BBFA01200549091F4A
:100890000860642000F0B4FA601CC4B2082CE1DBEC
:1008A000BDE8F081A48121420080214229B1064A9D
:1008B00012690243044B1A6104E0034A126982433D
:1008C000014B1A61704700000010024029B1064A2E
:1008D00092690243044B9A6104E0034A926982439D
:1008E000014B9A61704700000010024029B1064A8E
:1008F000D2680243044BDA6004E0034AD2688243C0
:10090000014BDA60704700000010024030B5002152
:100910000022002400232D4D6D6805F00C0121B14B
:10092000042905D0082923D105E0294D056022E0DE
:10093000274D05601FE0254D6D6805F47012234DAD
:100940006D6805F48034022505EB92421CB9214DF7
:10095000554305600BE01D4D6D6805F400351DB174
:100960001C4D5543056002E0194D5543056002E0FA
:10097000174D056000BF00BF144D6D6805F0F00114
:100980000909154D6B5C0568DD4045600F4D6D68CC
:1009900005F4E061090A104D6B5C4568DD40856037
:1009A0000A4D6D6805F46051C90A0B4D6B5C4568D2
:1009B000DD40C560054D6D6805F44041890B074D6C
:1009C0006B5CC568B5FBF3F5056130BD00100240F6
:1009D00000127A0000093D000800002018000020E5
:1009E00010B500F001F810BD0CB50020019000908A
:1009F0003348006840F480303149086000BF304817
:100A0000006800F4003000900198401C01900098AC
:100A100018B90198B0F5A06FF1D12948006800F429
:100A2000003010B10120009001E0002000900098FB
:100A3000012843D12348006840F010002149086094
:100A40000846006820F0030008600846006840F08F
:100A5000020008601A484068194948600846406822
:100A600048600846406840F4806048600846406836
:100A700020F47C1048600846406840F4E810486064
:100A80000846006840F08070086000BF0C480068AD
:100A900000F000700028F9D00948406820F00300F9
:100AA000074948600846406840F00200486000BFBF
:100AB0000348406800F00C000828F9D10CBD000084
:100AC00000100240002002407047000010B513489B
:100AD000006840F00100114908600846406810496C
:100AE00008400E494860084600680E4908400B4916
:100AF00008600846006820F48020086008464068C6
:100B000020F4FE0048604FF41F008860FFF768FF84
:100B10004FF000600449086010BD00000010024062
:100B20000000FFF8FFFFF6FE08ED00E010B540F210
:100B300025511D4800F098F810B31B4800F050F9FB
:100B4000C4B21A48008800F40040C8B917480088A9
:100B500000F4804060B10A2C03D0002013490880C3
:100B600020E01248008840F400401049088019E055
:100B70000D2C06D10D48008840F480400B490880B8
:100B800010E00A480088C0F30D0009490C540748DA
:100B90000088401C0549088008460088C72801DDF8
:100BA0000020088010BD00000038014074000020C3
:100BB0004445002021B1828942F40052828104E040
:100BC00082894DF6FF731A408281704710B5044642
:100BD0002048844209D101218803FFF787FE0021C4
:100BE0004FF48040FFF782FE32E01B48844209D177
:100BF00001214804FFF75AFE00214FF40030FFF7AF
:100C000055FE25E01548844209D101218804FFF7EB
:100C10004DFE00214FF48020FFF748FE18E01048F9
:100C2000844209D10121C804FFF740FE00214FF49E
:100C30000020FFF73BFE0BE00A48844208D1012167
:100C40000805FFF733FE00214FF48010FFF72EFE5A
:100C500010BD000000380140004400400048004042
:100C6000004C00400050004070B5024600240023B4
:100C70000025002040F66A16B14200D100BFC1F342
:100C8000421501F01F03012606FA03F3012D02D1DC
:100C90009689334006E0022D02D1168A334001E0E6
:100CA000968A33400C12012606FA04F41688344062
:100CB00013B10CB1012000E0002070BDF0B5034677
:100CC000002400260025002040F66A17B94200D112
:100CD00000BF1846C1F3421401F01F06012707FAAE
:100CE00006F5012C01D10C3004E0022C01D11030AA
:100CF00000E014301AB107682F43076002E007686C
:100D0000AF430760F0BD00002DE9F04786B005460F
:100D10000E460024A24600BFA1460027B08900B1BC
:100D200000BF2F462C8A4CF6FF700440F088044325
:100D30002C82AC894EF6F3100440B0883189084308
:100D4000718908430443AC81AC8A4FF6FF400440EC
:100D5000B0890443AC8201A8FFF7D8FD1F48874241
:100D600002D1DDF810A001E0DDF80CA0A88900F4A4
:100D7000004040B10AEBCA0000EB0A10316849009C
:100D8000B0FBF1F807E00AEBCA0000EB0A1031688B
:100D90008900B0FBF1F86420B8FBF0F004012009F1
:100DA000642101FB1089A88900F4004040B1322081
:100DB00000EBC900B0FBF1F000F00700044308E0CD
:100DC000322000EB09106421B0FBF1F000F00F00BD
:100DD00004432C8106B0BDE8F087000000380140D4
:100DE00001468888C0F30800704700BFFEE730382E
:100DF0000A2801D2012070470020704700BF7047C9
:100E0000014607E0322201E0531EDAB2002AFBDC81
:100E10004B1ED9B20029F5DC7047000000BF054A1F
:100E2000128802F04002002AF9D0C2B2014B1B1D09
:100E30001A807047003801401CB5FFF7F5FB00F041
:100E40006FFA08A0FFF710FA0A4802210023802257
:100E5000CDE9001008A10B4800F052FC00F0CCFBDB
:100E600000201CBD48656C6C6F20776F726C64212C
:100E70000A00000000000020537461727420546165
:100E8000736B0000890E00081CB5044600F0E8FAF8
:100E90000020032103468022CDE900100AA10C485E
:100EA00000F02EFC0B48042100238022CDE9001025
:100EB00009A10A4800F024FC0948006800F036FB4C
:100EC00000F0E0FA1CBD00004C454430000000007A
:100ED000A505000804000020524742000D06000846
:100EE000000000202DE9F04105460E461C48076829
:100EF0001C480068001D00F067FA50B919480068E6
:100F000090F82C1001208840174909688143164841
:100F10000160681C38B936B112480168091D1348D0
:100F200000F091FA1AE07C190E4800684460BC4257
:100F300007D20C480168091D0D48006800F069FAE5
:100F40000CE008480168091D0A48006800F061FAD1
:100F500009480068844201D207480460BDE8F08176
:100F6000300000201C000020340000203001002050
:100F700024000020200000204C00002010B5044672
:100F800000F06EFA23480068401C2249086022489D
:100F9000006840B9204804600846006801280DD167
:100FA00000F0F6F80AE01D48006838B91A480068F1
:100FB000C06AE16A884201D817480460184800688E
:100FC000401C1749086094F82C10012088401549EE
:100FD0000968084313490860E16A01EB8101124A7C
:100FE00002EB8100211D00F02EFA00F04BFA0B48B5
:100FF000006868B108480068C06AE16A884207D2A0
:101000004FF0805009490860BFF34F8FBFF36F8FD7
:1010100010BD00002C0000201C0000203800002023
:1010200048000020340000207C00002004ED00E097
:1010300070B523E000F012FB1348006808B90120E6
:1010400000E00020054600F01FFCBDB900F008FAE2
:101050000D48C068C468201D00F0B6F90B48006850
:10106000401E0A4908600A480068401E0849086096
:1010700000F008FA204600F00DF800BF04480068B0
:101080000028D7D170BD00001C0100202C000020DA
:101090002800002010B50446206B00F003FA20461B
:1010A00000F000FA10BD00000A4A22F007000A4AC8
:1010B00010600022084B5A6044F2F832074B5A6025
:1010C00000221A60014644F2F8324A601A460A6069
:1010D000704700004C0100205C00002064000020EC
:1010E00000BFFFF7A5FF064800680128F9D94FF0B7
:1010F000805004490860BFF34F8FBFF36F8FF0E754
:101100007C00002004ED00E02DE9FF5F80460F46E3
:101110009146DDE90E6A109CA9F10100216B01EBFB
:10112000800B2BF0070B002507E0795D04F13400FC
:101130004155785D00B902E06D1C102DF5D300BF5C
:10114000002143200155052E00D30426E662666483
:101150000020A064201D00F059F904F1180000F0EF
:1011600055F92461C6F10500A06164620020E064C5
:1011700084F8500041465846039A00F0BFF82060BA
:10118000BAF1000F01D0CAF80040BDE8FF9F00008F
:1011900010B5002407E004EB84010F4A02EB810044
:1011A00000F027F9641C052CF5D30C4800F021F958
:1011B0000B4800F01EF90B4800F01BF90A4800F03C
:1011C00018F90A4800F015F904480949086004486C
:1011D0000849086010BD00007C000020E0000020ED
:1011E000F4000020080100201C0100203001002034
:1011F00020000020240000200A490968096809B974
:10120000012100E0002121B14FF0FF31064A1160B9
:1012100006E004490968C968C868034A4168116062
:1012200070470000200000204C00002000BFBF20BD
:1012300080F31188BFF34F8FBFF36F8F00BF00BFE4
:10124000FEE700002DE9F04104464FF0000800F0F1
:1012500005FA2648006820B9FFF726FF0120234938
:10126000086044B1083404F0070020B104F007001E
:10127000C0F108000444002C32D044F2F83084421B
:101280002ED21B4F3846056801E02F462D6868684E
:10129000A04202D228680028F7D1164885421FD004
:1012A000386800F10808286838606868001B102852
:1012B00010D92E196868001B70606C6071680C484A
:1012C00000E00068026852688A42FAD3026832601D
:1012D000066000BF084968680968081A064908607E
:1012E00000F0D2FA4046BDE8F08100007000002016
:1012F0005C000020640000206C000020001F4FF004
:1013000080730360001F21F001030360001F034B83
:101310000360143802602038704700002D12000866
:1013200000B587B0012144F20400FFF7CFFA24484A
:10133000FFF74CFC4FF40070ADF8180003208DF857
:101340001A0018208DF81B0006A91E48FFF79BF80D
:101350004FF48060ADF8180004208DF81B0006A93A
:101360001848FFF790F84FF4E13002900020ADF8F4
:101370000C00ADF80E00ADF81000ADF814000C2014
:10138000ADF8120002A90E48FFF7BEFC25208DF82B
:10139000040003208DF805008DF8060001208DF86B
:1013A000070001A8FFF772F9012240F22551044815
:1013B000FFF784FC01210248FFF7FCFB07B000BDEA
:1013C000003801400008014001460A69D1E90130B6
:1013D0009860D1E9010358605068884201D188685B
:1013E0005060002008611068401E1060106870474F
:1013F000704700F1080141604FF0FF31816000F15A
:101400000801C16001610021016070470021016194
:10141000704710B502460B685C1C0CB9106907E0F8
:1014200002F1080000E04068446824689C42FAD950
:1014300044684C604C68A160886041600A6114682F
:10144000641C146010BD42684A6093688B609368A6
:1014500059609160086103685B1C0360704700007D
:1014600000BFBF2080F31188BFF34F8FBFF36F8F92
:1014700000BF03480068401C014908607047000035
:101480005800002006480068401E054908600846CC
:10149000006820B9002080F3118800BF00BF7047AA
:1014A0005800002070B506463546B6B1083D2C46BA
:1014B00000F0D4F86168094800E0006802685268EA
:1014C0008A42FAD3026822600460054960680968AC
:1014D00008440349086000F0D7F970BD5C000020A3
:1014E0006C00002003484FF0E021486107200861AC
:1014F000704700003F19010070B50446002544B153
:1015000000F0ACF800212046FFF7ECFC00F0BCF93D
:1015100005463DB94FF0805003490860BFF34F8F37
:10152000BFF36F8F70BD000004ED00E070B505469D
:10153000FFF796FF15B92748006800E028460446E3
:10154000201DFFF741FF78B9E06A00EB80002249D7
:1015500051F8200040B994F82C10012088401F4910
:10156000096881431D480160A06A18B104F11800A0
:10157000FFF72AFF1A480068401C194908601548FF
:101580000068844209D1211D1648FFF75CFF164808
:101590000068401C1449086009E014480068401EB7
:1015A000124908602046FFF775FDFFF725FEFFF79B
:1015B00069FF0F48006858B106480068844207D1A7
:1015C0004FF080500B490860BFF34F8FBFF36F8F10
:1015D00070BD00001C0000207C00002034000020B2
:1015E000480000201C010020280000202C000020C2
:1015F0003800002004ED00E01CB5114800210B4626
:101600008022CDE900100FA1104800F079F80446BF
:10161000012C14D100BFBF2080F31188BFF34F8F7E
:10162000BFF36F8F00BF4FF0FF3009490860012002
:101630000849086000200849086000F047F81CBD10
:101640005000002049444C4500000000E110000813
:101650004C000020380000203000002002480068C4
:10166000401C01490860704754000020124800687F
:1016700018B10120114908601DE000200F490860E1
:101680000F480068B0FA80F0C0F11F0101EB810241
:101690000C4B03EB820042685268426000F1080282
:1016A0004368934202D14268526842604268D268FD
:1016B000054B1A6000BF7047540000204000002016
:1016C000340000207C0000201C00002010B50A48D7
:1016D000006840F47F00084908600846006840F050
:1016E0007F400860FFF7FEFE002004490860FEF717
:1016F0005FFD002010BD000020ED00E0580000203C
:101700002DE9FF4F85B0804689461746DDE912ABCB
:10171000B800FFF797FD064656B15420FFF792FD3B
:1017200004460CB1266304E03046FFF7BBFE00E040
:1017300000247CB10020CDE900ABCDE902403A465F
:1017400049464046089BFFF7DFFC2046FFF716FCA2
:10175000012501E04FF0FF35284609B0BDE8F08FC4
:101760002DE9F04100273D480068002868D13C4839
:101770000068451C3A4805608DB93A48D0F80080A9
:1017800039480068374908603748C0F80080374852
:101790000068401C35490860FFF72EFD00BF344843
:1017A000006885423BD300BF2E480068006808B936
:1017B000012000E0002020B14FF0FF302C490860EC
:1017C0002CE028480068C068C4686668B54202D248
:1017D0002748066022E0201DFFF7F6FDA06A18B139
:1017E00004F11800FFF7F0FD94F82C100120884058
:1017F0002049096808431F490860E16A01EB81013B
:101800001D4A02EB8100211DFFF71DFE1B49E06A06
:101810000968C96A8842C7D30127C5E700BF1748CE
:101820000068C06A00EB8000134951F820000128CD
:1018300000D901271248006808B9FFF7D9FD06E072
:101840000F480068401C0E490860FFF7D1FD0D48A5
:10185000006800B101273846BDE8F081540000203F
:101860003000002020000020240000204400002040
:101870004C000020340000207C0000201C000020D0
:101880003C0000204000002070B500240026FFF737
:10189000E7FD2E480068401E2C4908600846006895
:1018A00000284FD12A48006800284BD024E029485E
:1018B000C068C46804F11800FFF786FD201DFFF71B
:1018C00083FD94F82C1001208840234909680843BF
:1018D00021490860E16A01EB8101204A02EB8100A5
:1018E000211DFFF7B0FD1E49E06A0968C96A8842F8
:1018F00002D301201B4908601648006808B901207E
:1019000000E000200028D2D00CB1FFF775FC16488B
:10191000056865B100BFFFF723FF10B10120114931
:1019200008606D1E002DF6D100200F4908600D489B
:10193000006838B1012630070C490860BFF34F8FAB
:10194000BFF36F8FFFF79EFD304670BD540000203F
:101950002C00002008010020340000207C00002022
:101960001C000020400000203C00002004ED00E0AE
:101970000400000800000000000000020001000058
:1019800010000000A4190008000000207C000000E6
:1019900028010008201A00087C000020F44B0000F9
:1019A00044010008000000000000000000000000EA
:1019B00001020304010203040607080902040608E1
:1019C0000000000000000000000000000000000017
:1019D0000000000000000000000000000000000007
:1019E00000000000000000000000000000000000F7
:1019F000000000000000000000000000AAAAAAAA3F
:101A000000000000000000000000000000000000D6
:101A1000F84300000000000000000000000000008B
:04000005080000ED02
:00000001FF
